:020000040800F2
:10000000B044002021020008CF050008C705000801
:10001000CB050008A3040008170C0008000000002E
:10002000000000000000000000000000890100083E
:10003000A704000800000000CD010008B11200086C
:100040003B0200083B0200083B0200083B0200089C
:100050003B0200083B0200083B0200083B0200088C
:100060003B0200083B0200083B0200083B0200087C
:100070003B0200083B0200083B0200083B0200086C
:100080003B0200083B0200083B0200083B0200085C
:100090003B0200083B0200083B0200083B0200084C
:1000A0003B0200083B0200083B0200083B0200083C
:1000B0003B0200083B0200083B0200083B0200082C
:1000C0003B0200083B0200083B0200083B0200081C
:1000D0003B020008290900083B0200083B02000817
:1000E0003B0200083B0200083B02000800F002F857
:1000F00000F03AF80AA090E8000C82448344AAF188
:100100000107DA4501D100F02FF8AFF2090EBAE885
:100110000F0013F0010F18BFFB1A43F0010318473B
:100120005014000070140000103A24BF78C878C141
:10013000FAD8520724BF30C830C144BF04680C60ED
:10014000704700000023002400250026103A28BF35
:1001500078C1FBD8520728BF30C148BF0B60704739
:100160001FB51FBD10B510BD00F064F91146FFF7B3
:10017000F7FF00F06DFD00F082F903B4FFF7F2FF26
:1001800003BC00F087F90000224B19680868B0E84A
:10019000F00F80F30988BFF36F8F4FF0000080F3FA
:1001A00011884EF00D0E70470000000006480068F0
:1001B000006880F3088862B661B6BFF34F8FBFF363
:1001C0006F8F00DF00BF00BF08ED00E0EFF3098094
:1001D000BFF36F8F0F4B1A6820E9F00F106008B55E
:1001E0004FF0BF0080F31188BFF34F8FBFF36F8FC5
:1001F00000F0F8FF4FF0000080F31188BDE80840E0
:1002000019680868B0E8F00F80F30988BFF36F8FB2
:10021000704700BF2C000020EFF3058070470000FE
:100220000948804709480047FEE7FEE7FEE7FEE78A
:10023000FEE7FEE7FEE7FEE7FEE7FEE704480549C6
:10024000054A064B70470000E1070008ED00000872
:10025000B03E0020B0440020B0400020B04000205C
:1002600040EA0103024630B59B0710D14FF001343C
:1002700000E008C208C91D1B9D4315EAC41FF8D041
:1002800013F0FF0102F8011B0DD01B0AF8E711F86B
:10029000013B002B02F8013B05D011F8013B002B7C
:1002A00002F8013BF3D130BD10B5203AC0F00B800D
:1002B000B1E81850203AA0E81850B1E81850A0E86A
:1002C0001850BFF4F5AF5FEA027C24BFB1E81850C4
:1002D000A0E8185044BF18C918C0BDE810405FEA34
:1002E000827C24BF51F8043B40F8043B08BF7047B0
:1002F000D20728BF31F8023B48BF11F8012B28BFB5
:1003000020F8023B48BF00F8012B704702F0FF03C2
:1003100043EA032242EA024200F002B84FF0000230
:100320000429C0F0128010F0030C00F05E80CCF1C4
:10033000040CBCF1020F18BF00F8012BA8BF20F875
:10034000022BA1EB0C0100F050B85FEAC17C24BF86
:1003500000F8012B00F8012B48BF00F8012B704773
:100360004FF0013C50F8042B51F8043B9A4221D144
:10037000A2EB0C03934313EACC1317D150F8042BD0
:1003800051F8043B9A4215D1A2EB0C03934313EAB4
:10039000CC130BD150F8042B51F8043B9A4209D1ED
:1003A000A2EB0C03934313EACC13DBD04FF0000015
:1003B000704700BFD01A01BAB1FA81F101F01801FB
:1003C00022FA01F0CB40C1F12001DBB2C0B2C01A69
:1003D0002CFA01F3D11A914311EAC311E6D1704707
:1003E0007047704770474FF0000200B513469446BF
:1003F0009646203922BFA0E80C50A0E80C50B1F17D
:100400002001BFF4F7AF090728BFA0E80C5048BF90
:100410000CC05DF804EB890028BF40F8042B08BF2E
:10042000704748BF20F8022B11F0804F18BF00F82A
:10043000012B7047754600F029F8AE460500694665
:10044000534620F00700854618B020B5FFF7F6FEAA
:10045000BDE820404FF000064FF000074FF00008C5
:100460004FF0000B21F00701AC46ACE8C009ACE846
:10047000C009ACE8C009ACE8C0098D467047044625
:10048000AFF300802046FFF778FE00000048704779
:10049000503E002001491820ABBEFEE726000200B6
:1004A000704700BFFEE770472DE9F0410246002586
:1004B0000026002000230024002791F803C00CF040
:1004C0000F0591F803C00CF0100CBCF1000F03D025
:1004D00091F802C04CEA050591F800C0BCF1000F8C
:1004E00031D0146800202BE04FF0010C0CFA00F31F
:1004F000B1F800C00CEA03069E4220D183004FF001
:100500000F0C0CFA03F7BC4305FA03FC4CEA040495
:1005100091F803C0BCF1280F06D14FF0010C0CFA82
:1005200000FCC2F814C00AE091F803C0BCF1480F07
:1005300005D14FF0010C0CFA00FCC2F810C0401CB1
:100540000828D1D31460B1F800C0BCF1FF0F34DD2E
:10055000546800202EE000F1080C4FF0010808FA62
:100560000CF3B1F800C00CEA03069E4221D18300CF
:100570004FF00F0C0CFA03F7BC4305FA03FC4CEAEE
:10058000040491F803C0BCF1280F05D100F1080C58
:1005900008FA0CF8C2F8148091F803C0BCF1480FB7
:1005A00007D100F1080C4FF0010808FA0CF8C2F866
:1005B0001080401C0828CED35460BDE8F081416112
:1005C00070470161704700BFFEE700BFFEE770475C
:1005D00008B50121082000F015F80121082000F0DD
:1005E00011F84FF48050ADF8000001208DF80200A2
:1005F00010208DF8030069460148FFF755FF08BD3C
:10060000000C014029B1064A92690243044B9A61E9
:1006100004E0034A92698243014B9A6170470000EB
:100620000010024030B500210022002400232D4D8F
:100630006D6805F00C0121B1042905D0082923D1EA
:1006400005E0294D056022E0274D05601FE0254D9E
:100650006D6805F47012234D6D6805F48034022531
:1006600005EB92421CB9214D554305600BE01D4D31
:100670006D6805F400351DB11C4D5543056002E061
:10068000194D5543056002E0174D056000BF00BFDE
:10069000144D6D6805F0F0010909154D6B5C056896
:1006A000DD4045600F4D6D6805F4E061090A104DAD
:1006B0006B5C4568DD4085600A4D6D6805F46051EE
:1006C000C90A0B4D6B5C4568DD40C560054D6D6822
:1006D00005F44041890B074D6B5CC568B5FBF3F52C
:1006E000056130BD0010024000127A0000093D0093
:1006F000040000201400002010B500F001F810BD27
:100700000CB50020019000903348006840F4803020
:100710003149086000BF3048006800F400300090A4
:100720000198401C0190009818B90198B0F5A06F8D
:10073000F1D12948006800F4003010B10120009088
:1007400001E0002000900098012843D12348006870
:1007500040F01000214908600846006820F00300BE
:1007600008600846006840F0020008601A484068C7
:10077000194948600846406848600846406840F4A7
:10078000806048600846406820F47C104860084655
:10079000406840F4E81048600846006840F0807007
:1007A000086000BF0C48006800F000700028F9D015
:1007B0000948406820F0030007494860084640683F
:1007C00040F00200486000BF0348406800F00C00A1
:1007D0000828F9D10CBD00000010024000200240A2
:1007E00010B51348006840F0010011490860084640
:1007F0004068104908400E494860084600680E49A4
:1008000008400B4908600846006820F48020086012
:100810000846406820F4FE0048604FF41F008860DE
:10082000FFF76AFF4FF000600449086010BD000048
:10083000001002400000FFF8FFFFF6FE08ED00E0A8
:1008400000BF074800780128FBD106490648FFF79A
:1008500007FD00200249087000F0E0F9F1E7000010
:100860000000002084000020980000208AB014229C
:10087000164905A8FFF718FD1422144914316846DB
:10088000FFF712FD00BF12A11348FFF769FD58B929
:1008900005A9124800F0B2F901201149087014218D
:1008A0000D48FFF73BFDEEE70EA10B48FFF758FDA3
:1008B0000028E8D16946094800F0A0F9002008495D
:1008C000087014210448FFF729FDDCE748150008EB
:1008D0004C65643A310A000098000020003801405D
:1008E000030000204C65643A300A000000BF0C4849
:1008F0000078012807D101030A48FFF760FE0220B3
:1009000007490870F3E7064800780028EFD14FF454
:1009100080510448FFF755FE022001490870E6E7C0
:1009200003000020000C014010B540F225510E4894
:1009300000F091F8B8B10C4800F048F90B49087084
:100940000A780B490878411C094B197009490A5467
:10095000064800780D2803D0044800780A2802D100
:1009600001200549087010BD003801400200002038
:1009700001000020840000200000002000B585B0A8
:10098000012144F20500FFF73DFE4FF40070ADF881
:10099000000003208DF8020018208DF8030069463E
:1009A0001E48FFF781FD4FF48060ADF80000032082
:1009B0008DF8020004208DF8030069461748FFF700
:1009C00073FD0121164800F02DF84FF416500190E8
:1009D0000020ADF80800ADF80A00ADF80C000C20BE
:1009E000ADF80E000020ADF8100001A90C4800F091
:1009F00081F8012240F22551094800F056F82520DF
:100A000000F01F02012191404209920002F1E02210
:100A1000C2F8001100BF05B000BD00000008014091
:100A20000038014021B1828942F40052828104E001
:100A300082894DF6FF731A4082817047024600207A
:100A4000B1F5007F00D100BF13880B400BB101202E
:100A500000E00020704770B5024600240023002506
:100A6000002040F66A16B14200D100BFC1F3421522
:100A700001F01F03012606FA03F3012D02D1968926
:100A8000334006E0022D02D1168A334001E0968AF7
:100A900033400C12012606FA04F41688344013B1D0
:100AA0000CB1012000E0002070BDF0B50346002429
:100AB00000260025002040F66A17B94200D100BF89
:100AC0001846C1F3421401F01F06012707FA06F584
:100AD000012C01D10C3004E0022C01D1103000E0D7
:100AE00014301AB107682F43076002E00768AF436C
:100AF0000760F0BD2DE9F04786B005460E4600249C
:100B0000A24600BFA1460027B08900B100BF2F4612
:100B10002C8A4CF6FF700440F08804432C82AC8988
:100B20004EF6F3100440B0883189084371890843B8
:100B30000443AC81AC8A4FF6FF400440B0890443C3
:100B4000AC8201A8FFF76EFD1F48874202D1DDF895
:100B500010A001E0DDF80CA0A88900F4004040B12D
:100B60000AEBCA0000EB0A1031684900B0FBF1F84B
:100B700007E00AEBCA0000EB0A1031688900B0FBFD
:100B8000F1F86420B8FBF0F004012009642101FBB6
:100B90001089A88900F4004040B1322000EBC90060
:100BA000B0FBF1F000F00700044308E0322000EB56
:100BB00009106421B0FBF1F000F00F0004432C8118
:100BC00006B0BDE8F0870000003801400146888883
:100BD000C0F308007047C1F308028280704770B507
:100BE00004460D4600BF40212046FFF727FF00289E
:100BF000F9D029462046FFF7EEFF70BD70B50546D7
:100C00000C4604E021782846FFF7E9FF641C2078B1
:100C10000028F7D170BD00BFFEE7000000200A49A0
:100C2000087009E000200949074A127888540648EC
:100C30000078401C04490870034800781428F1DB50
:100C40000020014908707047010000208400002046
:100C50001CB5FFF7C5FDFFF7BBFCFFF78FFE0020BB
:100C6000012103468022CDE900100EA1104800F0BA
:100C700039FB0020012103468022CDE900100DA19F
:100C80000F4800F02FFB0020012103468022CDE910
:100C900000100CA10F4800F025FB00F069FA0020BD
:100CA0001CBD00004C45445F504231320000000042
:100CB000ED080008484D31305F5465737400000042
:100CC0006D08000855617274205F47657453747233
:100CD000696E67004108000810B5044600F0F6F997
:100CE00024480068401C234908602348006840B934
:100CF000214804600846006801280DD100F0ECF896
:100D00000AE01E48006838B91B480068C06AE16AFA
:100D1000884201D81848046019480068401C1849E6
:100D2000086008460068206494F82C100120884070
:100D300014490968084313490860E16A01EB81011D
:100D4000114A02EB8100211D00F0B4F900F0D0F946
:100D50000A48006868B108480068C06AE16A8842C9
:100D600007D24FF0805009490860BFF34F8FBFF39F
:100D70006F8F10BD3C0000202C0000204800002098
:100D80005800002044000020AC00002004ED00E0EA
:100D900070B523E000F01EFA1348006808B901207E
:100DA00000E00020054600F05BFBBDB900F08EF9C5
:100DB0000D48C068C468201D00F056F90B48006853
:100DC000401E0A4908600A480068401E0849086039
:100DD00000F08EF9204600F00DF800BF04480068CE
:100DE0000028D7D170BD0000280200203C00002060
:100DF0003800002010B50446206B00F089F9204629
:100E000000F086F910BD00000A4A22F007000A4AE5
:100E100010600022084B5A6043F6F832074B5A60C4
:100E200000221A60014643F6F8324A601A460A6008
:100E300070470000580200206C0000207400002061
:100E400000BFFFF7A5FFFCE72DE9F05F81460F46E5
:100E500090469A460A9E0C9C4FEA8801A522206B78
:100E6000FFF754FAA8F10100216B01EB800B2BF086
:100E7000070B002507E0795D04F134004155785DEA
:100E800000B902E06D1C0A2DF5D300BF00213D2002
:100E90000155102E00D30F26E662A6640020E06400
:100EA000201D00F004F904F1180000F000F924619D
:100EB000C6F11000A06164620020206584F854002F
:100EC00052464946584600F0BDF820600B9808B1DC
:100ED0000B980460BDE8F09F10B5002407E004EB18
:100EE00084010F4A02EB810000F0D4F8641C102C3E
:100EF000F5D30C4800F0CEF80B4800F0CBF80B48C7
:100F000000F0C8F80A4800F0C5F80A4800F0C2F836
:100F100004480949086004480849086010BD0000F9
:100F2000AC000020EC010020000200201402002090
:100F3000280200203C020020300000203400002065
:100F40000A490968096809B9012100E0002121B1B5
:100F50004FF0FF31064A116006E004490968C9688C
:100F6000C868034A416811607047000030000020E3
:100F70005C00002000BFBF2080F31188BFF34F8FBB
:100F8000BFF36F8F00BF00BFFEE700002DE9F04107
:100F900004464FF0000800F01DF92648006820B90B
:100FA000FFF732FF01202349086044B1083404F000
:100FB000070020B104F00700C0F108000444002C31
:100FC00032D043F6F83084422ED21B4F38460568A3
:100FD00001E02F462D686868A04202D228680028E8
:100FE000F7D1164885421FD0386800F108082868F4
:100FF00038606868001B102810D92E196868001B1B
:1010000070606C6071680C4800E0006802685268AB
:101010008A42FAD302683260066000BF08496868F5
:101020000968081A0649086000F01AFA4046BDE847
:10103000F0810000800000206C000020740000207F
:101040007C000020001F4FF080730360001F21F020
:1010500001030360001F034B036014380260203853
:1010600070470000750F000801460A69D1E9013098
:101070009860D1E9010358605068884201D18868BE
:101080005060002008611068401E106010687047B2
:1010900000BFFEE700F1080141604FF0FF318160C1
:1010A00000F10801C1600161002101607047002169
:1010B0000161704742684A6093688B609368596029
:1010C0009160086103685B1C0360704700BFBF202C
:1010D00080F31188BFF34F8FBFF36F8F00BF0348BA
:1010E0000068401C0149086070470000680000204B
:1010F00006480068401E054908600846006820B997
:10110000002080F3118800BF00BF704768000020F6
:1011100070B506463546B6B1083D2C4600F05AF883
:101120006168094800E00068026852688A42FAD3A0
:101130000268226004600549606809680844034940
:10114000086000F08DF970BD6C0000207C0000206C
:10115000064800684FF47A71B0FBF1F0401E4FF082
:10116000E021486107200861704700001800002056
:101170001CB5114800210B468022CDE900100FA1BB
:10118000104800F0AFF80446012C14D100BFBF2076
:1011900080F31188BFF34F8FBFF36F8F00BF4FF005
:1011A000FF3009490860012008490860002008490B
:1011B000086000F063F81CBD6000002049444C4505
:1011C00000000000410E00085C00002048000020E4
:1011D0004000002002480068401C01490860704738
:1011E0006400002070B52048006818B101201F4934
:1011F000086038E000201D4908601D480068046B45
:101200004FF0A5352068B0F1A53F0BD16068B0F173
:10121000A53F07D1A068B0F1A53F03D1E068B0F1C8
:10122000A53F05D01248016834310068FFF730FF50
:1012300010480068B0FA80F0C0F11F0101EB810294
:101240000D4B03EB820042685268426000F10802D5
:101250004368934202D14268526842604268D26851
:10126000034B1A6000BF70BD6400002050000020D6
:101270002C00002044000020AC00002010B50A48DB
:10128000006840F47F00084908600846006840F0A4
:101290007F400860FFF75CFF002004490860FEF70C
:1012A00085FF002010BD000020ED00E06800002058
:1012B00010B500BFBF2080F31188BFF34F8FBFF37D
:1012C0006F8F00BF00F03EF818B14FF08050044916
:1012D000086000BF002080F3118800BF10BD00002F
:1012E00004ED00E02DE9FF4F85B0804689461746A2
:1012F000DDE912ABB800FFF749FE064656B15820AB
:10130000FFF744FE04460CB1266304E03046FFF7C5
:10131000FFFE00E000247CB10020CDE900ABCDE968
:1013200002403A4649464046089BFFF78DFD20465D
:10133000FFF7D2FC012501E04FF0FF35284609B048
:10134000BDE8F08F2DE9F04100273A4800680028F9
:1013500063D139480068451C374805608DB9374866
:10136000D0F8008036480068344908603448C0F836
:10137000008034480068401C32490860FFF7E0FDF7
:1013800000BF3148006885423BD300BF2B4800684E
:10139000006808B9012000E0002020B14FF0FF30C4
:1013A000294908602CE025480068C068C468666860
:1013B000B54202D22448066022E0201DFFF754FE09
:1013C000A06A18B104F11800FFF74EFE94F82C1033
:1013D000012088401D49096808431C490860E16AEA
:1013E00001EB81011A4A02EB8100211DFFF762FE29
:1013F0001849E06A0968C96A8842C7D30127C5E766
:1014000000BF14480068C06A00EB8000104951F822
:101410002000012800D9012704E00F480068401C83
:101420000D4908600D48006800B101273846BDE845
:10143000F081000064000020400000203000002007
:1014400034000020540000205C00002044000020F4
:10145000AC0000202C0000204C0000205000002098
:1014600070B500240026FFF731FE2E480068401EAC
:101470002C4908600846006800284FD12A480068B7
:1014800000284BD024E02948C068C46804F1180043
:10149000FFF7EAFD201DFFF7E7FD94F82C1001206F
:1014A000884023490968084321490860E16A01EB43
:1014B0008101204A02EB8100211DFFF7FBFD1E493F
:1014C000E06A0968C96A884202D301201B490860A2
:1014D0001648006808B9012000E000200028D2D09A
:1014E0000CB1FFF72DFD1648056865B100BFFFF789
:1014F00029FF10B10120114908606D1E002DF6D1A1
:1015000000200F4908600D48006838B101263007F7
:101510000C490860BFF34F8FBFF36F8FFFF7E8FDF3
:10152000304670BD640000203C0000201402002002
:1015300044000020AC0000202C00002050000020BF
:101540004C00002004ED00E04C6564204F4E0A0082
:101550000000000000000000000000004C65642056
:101560004F46460A00000000000000000000000096
:1015700090150008000000208400000028010008E9
:1015800014160008840000202C44000044010008C8
:101590000000000000000000010203040102030437
:1015A000060708090204060800A24A040000000019
:1015B0000000000001020304060708090000000003
:1015C000000000000000000000000000000000001B
:1015D000000000000000000000000000000000000B
:1015E00000000000000000000000000000000000FB
:1015F0000000000000000000AAAAAAAA0000000043
:10160000000000000000000000000000F83B0000A7
:0416100000000000D6
:0400000508000221CC
:00000001FF
